{
  "_format": "hh-sol-artifact-1",
  "contractName": "MyNFT",
  "sourceName": "contracts/ERC721.sol",
  "abi": [
    {
      "inputs": [
        {
          "internalType": "string",
          "name": "NFTName",
          "type": "string"
        },
        {
          "internalType": "string",
          "name": "NFTSymbol",
          "type": "string"
        }
      ],
      "stateMutability": "nonpayable",
      "type": "constructor"
    },
    {
      "anonymous": false,
      "inputs": [
        {
          "indexed": true,
          "internalType": "address",
          "name": "owner",
          "type": "address"
        },
        {
          "indexed": true,
          "internalType": "address",
          "name": "approved",
          "type": "address"
        },
        {
          "indexed": true,
          "internalType": "uint256",
          "name": "tokenId",
          "type": "uint256"
        }
      ],
      "name": "Approval",
      "type": "event"
    },
    {
      "anonymous": false,
      "inputs": [
        {
          "indexed": true,
          "internalType": "address",
          "name": "owner",
          "type": "address"
        },
        {
          "indexed": true,
          "internalType": "address",
          "name": "operator",
          "type": "address"
        },
        {
          "indexed": false,
          "internalType": "bool",
          "name": "approved",
          "type": "bool"
        }
      ],
      "name": "ApprovalForAll",
      "type": "event"
    },
    {
      "anonymous": false,
      "inputs": [
        {
          "indexed": true,
          "internalType": "address",
          "name": "from",
          "type": "address"
        },
        {
          "indexed": true,
          "internalType": "address",
          "name": "to",
          "type": "address"
        },
        {
          "indexed": true,
          "internalType": "uint256",
          "name": "tokenId",
          "type": "uint256"
        }
      ],
      "name": "Transfer",
      "type": "event"
    },
    {
      "inputs": [
        {
          "internalType": "address",
          "name": "to",
          "type": "address"
        },
        {
          "internalType": "uint256",
          "name": "tokenId",
          "type": "uint256"
        }
      ],
      "name": "approve",
      "outputs": [],
      "stateMutability": "nonpayable",
      "type": "function"
    },
    {
      "inputs": [
        {
          "internalType": "address",
          "name": "owner",
          "type": "address"
        }
      ],
      "name": "balanceOf",
      "outputs": [
        {
          "internalType": "uint256",
          "name": "",
          "type": "uint256"
        }
      ],
      "stateMutability": "view",
      "type": "function"
    },
    {
      "inputs": [
        {
          "internalType": "uint256",
          "name": "tokenId",
          "type": "uint256"
        }
      ],
      "name": "getApproved",
      "outputs": [
        {
          "internalType": "address",
          "name": "",
          "type": "address"
        }
      ],
      "stateMutability": "view",
      "type": "function"
    },
    {
      "inputs": [
        {
          "internalType": "address",
          "name": "owner",
          "type": "address"
        },
        {
          "internalType": "address",
          "name": "operator",
          "type": "address"
        }
      ],
      "name": "isApprovedForAll",
      "outputs": [
        {
          "internalType": "bool",
          "name": "",
          "type": "bool"
        }
      ],
      "stateMutability": "view",
      "type": "function"
    },
    {
      "inputs": [
        {
          "internalType": "string",
          "name": "tokenURI",
          "type": "string"
        }
      ],
      "name": "mintNFT",
      "outputs": [
        {
          "internalType": "uint256",
          "name": "",
          "type": "uint256"
        }
      ],
      "stateMutability": "nonpayable",
      "type": "function"
    },
    {
      "inputs": [],
      "name": "name",
      "outputs": [
        {
          "internalType": "string",
          "name": "",
          "type": "string"
        }
      ],
      "stateMutability": "view",
      "type": "function"
    },
    {
      "inputs": [
        {
          "internalType": "uint256",
          "name": "tokenId",
          "type": "uint256"
        }
      ],
      "name": "ownerOf",
      "outputs": [
        {
          "internalType": "address",
          "name": "",
          "type": "address"
        }
      ],
      "stateMutability": "view",
      "type": "function"
    },
    {
      "inputs": [
        {
          "internalType": "address",
          "name": "from",
          "type": "address"
        },
        {
          "internalType": "address",
          "name": "to",
          "type": "address"
        },
        {
          "internalType": "uint256",
          "name": "tokenId",
          "type": "uint256"
        }
      ],
      "name": "safeTransferFrom",
      "outputs": [],
      "stateMutability": "nonpayable",
      "type": "function"
    },
    {
      "inputs": [
        {
          "internalType": "address",
          "name": "from",
          "type": "address"
        },
        {
          "internalType": "address",
          "name": "to",
          "type": "address"
        },
        {
          "internalType": "uint256",
          "name": "tokenId",
          "type": "uint256"
        },
        {
          "internalType": "bytes",
          "name": "_data",
          "type": "bytes"
        }
      ],
      "name": "safeTransferFrom",
      "outputs": [],
      "stateMutability": "nonpayable",
      "type": "function"
    },
    {
      "inputs": [
        {
          "internalType": "address",
          "name": "operator",
          "type": "address"
        },
        {
          "internalType": "bool",
          "name": "approved",
          "type": "bool"
        }
      ],
      "name": "setApprovalForAll",
      "outputs": [],
      "stateMutability": "nonpayable",
      "type": "function"
    },
    {
      "inputs": [
        {
          "internalType": "bytes4",
          "name": "interfaceId",
          "type": "bytes4"
        }
      ],
      "name": "supportsInterface",
      "outputs": [
        {
          "internalType": "bool",
          "name": "",
          "type": "bool"
        }
      ],
      "stateMutability": "view",
      "type": "function"
    },
    {
      "inputs": [],
      "name": "symbol",
      "outputs": [
        {
          "internalType": "string",
          "name": "",
          "type": "string"
        }
      ],
      "stateMutability": "view",
      "type": "function"
    },
    {
      "inputs": [
        {
          "internalType": "uint256",
          "name": "tokenId",
          "type": "uint256"
        }
      ],
      "name": "tokenURI",
      "outputs": [
        {
          "internalType": "string",
          "name": "",
          "type": "string"
        }
      ],
      "stateMutability": "view",
      "type": "function"
    },
    {
      "inputs": [
        {
          "internalType": "address",
          "name": "from",
          "type": "address"
        },
        {
          "internalType": "address",
          "name": "to",
          "type": "address"
        },
        {
          "internalType": "uint256",
          "name": "tokenId",
          "type": "uint256"
        }
      ],
      "name": "transferFrom",
      "outputs": [],
      "stateMutability": "nonpayable",
      "type": "function"
    }
  ],
  "bytecode": "0x60806040523480156200001157600080fd5b5060405162002f8938038062002f89833981810160405281019062000037919062000197565b818181600090805190602001906200005192919062000075565b5080600190805190602001906200006a92919062000075565b50505050506200037a565b82805462000083906200029f565b90600052602060002090601f016020900481019282620000a75760008555620000f3565b82601f10620000c257805160ff1916838001178555620000f3565b82800160010185558215620000f3579182015b82811115620000f2578251825591602001919060010190620000d5565b5b50905062000102919062000106565b5090565b5b808211156200012157600081600090555060010162000107565b5090565b60006200013c620001368462000233565b6200020a565b9050828152602081018484840111156200015557600080fd5b6200016284828562000269565b509392505050565b600082601f8301126200017c57600080fd5b81516200018e84826020860162000125565b91505092915050565b60008060408385031215620001ab57600080fd5b600083015167ffffffffffffffff811115620001c657600080fd5b620001d4858286016200016a565b925050602083015167ffffffffffffffff811115620001f257600080fd5b62000200858286016200016a565b9150509250929050565b60006200021662000229565b9050620002248282620002d5565b919050565b6000604051905090565b600067ffffffffffffffff8211156200025157620002506200033a565b5b6200025c8262000369565b9050602081019050919050565b60005b83811015620002895780820151818401526020810190506200026c565b8381111562000299576000848401525b50505050565b60006002820490506001821680620002b857607f821691505b60208210811415620002cf57620002ce6200030b565b5b50919050565b620002e08262000369565b810181811067ffffffffffffffff821117156200030257620003016200033a565b5b80604052505050565b7f4e487b7100000000000000000000000000000000000000000000000000000000600052602260045260246000fd5b7f4e487b7100000000000000000000000000000000000000000000000000000000600052604160045260246000fd5b6000601f19601f8301169050919050565b612bff806200038a6000396000f3fe608060405234801561001057600080fd5b50600436106100ea5760003560e01c806370a082311161008c578063b88d4fde11610066578063b88d4fde1461025b578063c87b56dd14610277578063e985e9c5146102a7578063fb37e883146102d7576100ea565b806370a08231146101f157806395d89b4114610221578063a22cb4651461023f576100ea565b8063095ea7b3116100c8578063095ea7b31461016d57806323b872dd1461018957806342842e0e146101a55780636352211e146101c1576100ea565b806301ffc9a7146100ef57806306fdde031461011f578063081812fc1461013d575b600080fd5b61010960048036038101906101049190611c6b565b610307565b60405161011691906120b2565b60405180910390f35b6101276103e9565b60405161013491906120cd565b60405180910390f35b61015760048036038101906101529190611cfe565b61047b565b604051610164919061204b565b60405180910390f35b61018760048036038101906101829190611c2f565b610500565b005b6101a3600480360381019061019e9190611b29565b610618565b005b6101bf60048036038101906101ba9190611b29565b610678565b005b6101db60048036038101906101d69190611cfe565b610698565b6040516101e8919061204b565b60405180910390f35b61020b60048036038101906102069190611ac4565b61074a565b60405161021891906122ef565b60405180910390f35b610229610802565b60405161023691906120cd565b60405180910390f35b61025960048036038101906102549190611bf3565b610894565b005b61027560048036038101906102709190611b78565b6108aa565b005b610291600480360381019061028c9190611cfe565b61090c565b60405161029e91906120cd565b60405180910390f35b6102c160048036038101906102bc9190611aed565b610a5e565b6040516102ce91906120b2565b60405180910390f35b6102f160048036038101906102ec9190611cbd565b610af2565b6040516102fe91906122ef565b60405180910390f35b60007f80ac58cd000000000000000000000000000000000000000000000000000000007bffffffffffffffffffffffffffffffffffffffffffffffffffffffff1916827bffffffffffffffffffffffffffffffffffffffffffffffffffffffff191614806103d257507f5b5e139f000000000000000000000000000000000000000000000000000000007bffffffffffffffffffffffffffffffffffffffffffffffffffffffff1916827bffffffffffffffffffffffffffffffffffffffffffffffffffffffff1916145b806103e257506103e182610b29565b5b9050919050565b6060600080546103f890612545565b80601f016020809104026020016040519081016040528092919081815260200182805461042490612545565b80156104715780601f1061044657610100808354040283529160200191610471565b820191906000526020600020905b81548152906001019060200180831161045457829003601f168201915b5050505050905090565b600061048682610b93565b6104c5576040517f08c379a00000000000000000000000000000000000000000000000000000000081526004016104bc9061226f565b60405180910390fd5b6004600083815260200190815260200160002060009054906101000a900473ffffffffffffffffffffffffffffffffffffffff169050919050565b600061050b82610698565b90508073ffffffffffffffffffffffffffffffffffffffff168373ffffffffffffffffffffffffffffffffffffffff16141561057c576040517f08c379a0000000000000000000000000000000000000000000000000000000008152600401610573906122af565b60405180910390fd5b8073ffffffffffffffffffffffffffffffffffffffff1661059b610bff565b73ffffffffffffffffffffffffffffffffffffffff1614806105ca57506105c9816105c4610bff565b610a5e565b5b610609576040517f08c379a0000000000000000000000000000000000000000000000000000000008152600401610600906121af565b60405180910390fd5b6106138383610c07565b505050565b610629610623610bff565b82610cc0565b610668576040517f08c379a000000000000000000000000000000000000000000000000000000000815260040161065f906122cf565b60405180910390fd5b610673838383610d9e565b505050565b610693838383604051806020016040528060008152506108aa565b505050565b6000806002600084815260200190815260200160002060009054906101000a900473ffffffffffffffffffffffffffffffffffffffff169050600073ffffffffffffffffffffffffffffffffffffffff168173ffffffffffffffffffffffffffffffffffffffff161415610741576040517f08c379a0000000000000000000000000000000000000000000000000000000008152600401610738906121ef565b60405180910390fd5b80915050919050565b60008073ffffffffffffffffffffffffffffffffffffffff168273ffffffffffffffffffffffffffffffffffffffff1614156107bb576040517f08c379a00000000000000000000000000000000000000000000000000000000081526004016107b2906121cf565b60405180910390fd5b600360008373ffffffffffffffffffffffffffffffffffffffff1673ffffffffffffffffffffffffffffffffffffffff168152602001908152602001600020549050919050565b60606001805461081190612545565b80601f016020809104026020016040519081016040528092919081815260200182805461083d90612545565b801561088a5780601f1061085f5761010080835404028352916020019161088a565b820191906000526020600020905b81548152906001019060200180831161086d57829003601f168201915b5050505050905090565b6108a661089f610bff565b8383611005565b5050565b6108bb6108b5610bff565b83610cc0565b6108fa576040517f08c379a00000000000000000000000000000000000000000000000000000000081526004016108f1906122cf565b60405180910390fd5b61090684848484611172565b50505050565b606061091782610b93565b610956576040517f08c379a000000000000000000000000000000000000000000000000000000000815260040161094d9061224f565b60405180910390fd5b600060066000848152602001908152602001600020805461097690612545565b80601f01602080910402602001604051908101604052809291908181526020018280546109a290612545565b80156109ef5780601f106109c4576101008083540402835291602001916109ef565b820191906000526020600020905b8154815290600101906020018083116109d257829003601f168201915b505050505090506000610a006111ce565b9050600081511415610a16578192505050610a59565b600082511115610a4b578082604051602001610a33929190612027565b60405160208183030381529060405292505050610a59565b610a54846111e5565b925050505b919050565b6000600560008473ffffffffffffffffffffffffffffffffffffffff1673ffffffffffffffffffffffffffffffffffffffff16815260200190815260200160002060008373ffffffffffffffffffffffffffffffffffffffff1673ffffffffffffffffffffffffffffffffffffffff16815260200190815260200160002060009054906101000a900460ff16905092915050565b6000610afe600761128c565b6000610b0a60076112a2565b9050610b1633826112b0565b610b2081846112ce565b80915050919050565b60007f01ffc9a7000000000000000000000000000000000000000000000000000000007bffffffffffffffffffffffffffffffffffffffffffffffffffffffff1916827bffffffffffffffffffffffffffffffffffffffffffffffffffffffff1916149050919050565b60008073ffffffffffffffffffffffffffffffffffffffff166002600084815260200190815260200160002060009054906101000a900473ffffffffffffffffffffffffffffffffffffffff1673ffffffffffffffffffffffffffffffffffffffff1614159050919050565b600033905090565b816004600083815260200190815260200160002060006101000a81548173ffffffffffffffffffffffffffffffffffffffff021916908373ffffffffffffffffffffffffffffffffffffffff160217905550808273ffffffffffffffffffffffffffffffffffffffff16610c7a83610698565b73ffffffffffffffffffffffffffffffffffffffff167f8c5be1e5ebec7d5bd14f71427d1e84f3dd0314c0f7b2291e5b200ac8c7c3b92560405160405180910390a45050565b6000610ccb82610b93565b610d0a576040517f08c379a0000000000000000000000000000000000000000000000000000000008152600401610d019061218f565b60405180910390fd5b6000610d1583610698565b90508073ffffffffffffffffffffffffffffffffffffffff168473ffffffffffffffffffffffffffffffffffffffff161480610d575750610d568185610a5e565b5b80610d9557508373ffffffffffffffffffffffffffffffffffffffff16610d7d8461047b565b73ffffffffffffffffffffffffffffffffffffffff16145b91505092915050565b8273ffffffffffffffffffffffffffffffffffffffff16610dbe82610698565b73ffffffffffffffffffffffffffffffffffffffff1614610e14576040517f08c379a0000000000000000000000000000000000000000000000000000000008152600401610e0b9061210f565b60405180910390fd5b600073ffffffffffffffffffffffffffffffffffffffff168273ffffffffffffffffffffffffffffffffffffffff161415610e84576040517f08c379a0000000000000000000000000000000000000000000000000000000008152600401610e7b9061214f565b60405180910390fd5b610e8f838383611342565b610e9a600082610c07565b6001600360008573ffffffffffffffffffffffffffffffffffffffff1673ffffffffffffffffffffffffffffffffffffffff1681526020019081526020016000206000828254610eea919061245b565b925050819055506001600360008473ffffffffffffffffffffffffffffffffffffffff1673ffffffffffffffffffffffffffffffffffffffff1681526020019081526020016000206000828254610f4191906123d4565b92505081905550816002600083815260200190815260200160002060006101000a81548173ffffffffffffffffffffffffffffffffffffffff021916908373ffffffffffffffffffffffffffffffffffffffff160217905550808273ffffffffffffffffffffffffffffffffffffffff168473ffffffffffffffffffffffffffffffffffffffff167fddf252ad1be2c89b69c2b068fc378daa952ba7f163c4a11628f55a4df523b3ef60405160405180910390a4611000838383611347565b505050565b8173ffffffffffffffffffffffffffffffffffffffff168373ffffffffffffffffffffffffffffffffffffffff161415611074576040517f08c379a000000000000000000000000000000000000000000000000000000000815260040161106b9061216f565b60405180910390fd5b80600560008573ffffffffffffffffffffffffffffffffffffffff1673ffffffffffffffffffffffffffffffffffffffff16815260200190815260200160002060008473ffffffffffffffffffffffffffffffffffffffff1673ffffffffffffffffffffffffffffffffffffffff16815260200190815260200160002060006101000a81548160ff0219169083151502179055508173ffffffffffffffffffffffffffffffffffffffff168373ffffffffffffffffffffffffffffffffffffffff167f17307eab39ab6107e8899845ad3d59bd9653f200f220920489ca2b5937696c318360405161116591906120b2565b60405180910390a3505050565b61117d848484610d9e565b6111898484848461134c565b6111c8576040517f08c379a00000000000000000000000000000000000000000000000000000000081526004016111bf906120ef565b60405180910390fd5b50505050565b606060405180602001604052806000815250905090565b60606111f082610b93565b61122f576040517f08c379a00000000000000000000000000000000000000000000000000000000081526004016112269061228f565b60405180910390fd5b60006112396111ce565b905060008151116112595760405180602001604052806000815250611284565b80611263846114e3565b604051602001611274929190612027565b6040516020818303038152906040525b915050919050565b6001816000016000828254019250508190555050565b600081600001549050919050565b6112ca828260405180602001604052806000815250611690565b5050565b6112d782610b93565b611316576040517f08c379a000000000000000000000000000000000000000000000000000000000815260040161130d9061220f565b60405180910390fd5b8060066000848152602001908152602001600020908051906020019061133d9291906118e8565b505050565b505050565b505050565b600061136d8473ffffffffffffffffffffffffffffffffffffffff166116eb565b156114d6578373ffffffffffffffffffffffffffffffffffffffff1663150b7a02611396610bff565b8786866040518563ffffffff1660e01b81526004016113b89493929190612066565b602060405180830381600087803b1580156113d257600080fd5b505af192505050801561140357506040513d601f19601f820116820180604052508101906114009190611c94565b60015b611486573d8060008114611433576040519150601f19603f3d011682016040523d82523d6000602084013e611438565b606091505b5060008151141561147e576040517f08c379a0000000000000000000000000000000000000000000000000000000008152600401611475906120ef565b60405180910390fd5b805181602001fd5b63150b7a0260e01b7bffffffffffffffffffffffffffffffffffffffffffffffffffffffff1916817bffffffffffffffffffffffffffffffffffffffffffffffffffffffff1916149150506114db565b600190505b949350505050565b6060600082141561152b576040518060400160405280600181526020017f3000000000000000000000000000000000000000000000000000000000000000815250905061168b565b600082905060005b6000821461155d578080611546906125a8565b915050600a82611556919061242a565b9150611533565b60008167ffffffffffffffff81111561159f577f4e487b7100000000000000000000000000000000000000000000000000000000600052604160045260246000fd5b6040519080825280601f01601f1916602001820160405280156115d15781602001600182028036833780820191505090505b5090505b60008514611684576001826115ea919061245b565b9150600a856115f991906125f1565b603061160591906123d4565b60f81b818381518110611641577f4e487b7100000000000000000000000000000000000000000000000000000000600052603260045260246000fd5b60200101907effffffffffffffffffffffffffffffffffffffffffffffffffffffffffffff1916908160001a905350600a8561167d919061242a565b94506115d5565b8093505050505b919050565b61169a838361170e565b6116a7600084848461134c565b6116e6576040517f08c379a00000000000000000000000000000000000000000000000000000000081526004016116dd906120ef565b60405180910390fd5b505050565b6000808273ffffffffffffffffffffffffffffffffffffffff163b119050919050565b600073ffffffffffffffffffffffffffffffffffffffff168273ffffffffffffffffffffffffffffffffffffffff16141561177e576040517f08c379a00000000000000000000000000000000000000000000000000000000081526004016117759061222f565b60405180910390fd5b61178781610b93565b156117c7576040517f08c379a00000000000000000000000000000000000000000000000000000000081526004016117be9061212f565b60405180910390fd5b6117d360008383611342565b6001600360008473ffffffffffffffffffffffffffffffffffffffff1673ffffffffffffffffffffffffffffffffffffffff168152602001908152602001600020600082825461182391906123d4565b92505081905550816002600083815260200190815260200160002060006101000a81548173ffffffffffffffffffffffffffffffffffffffff021916908373ffffffffffffffffffffffffffffffffffffffff160217905550808273ffffffffffffffffffffffffffffffffffffffff16600073ffffffffffffffffffffffffffffffffffffffff167fddf252ad1be2c89b69c2b068fc378daa952ba7f163c4a11628f55a4df523b3ef60405160405180910390a46118e460008383611347565b5050565b8280546118f490612545565b90600052602060002090601f016020900481019282611916576000855561195d565b82601f1061192f57805160ff191683800117855561195d565b8280016001018555821561195d579182015b8281111561195c578251825591602001919060010190611941565b5b50905061196a919061196e565b5090565b5b8082111561198757600081600090555060010161196f565b5090565b600061199e6119998461232f565b61230a565b9050828152602081018484840111156119b657600080fd5b6119c1848285612503565b509392505050565b60006119dc6119d784612360565b61230a565b9050828152602081018484840111156119f457600080fd5b6119ff848285612503565b509392505050565b600081359050611a1681612b6d565b92915050565b600081359050611a2b81612b84565b92915050565b600081359050611a4081612b9b565b92915050565b600081519050611a5581612b9b565b92915050565b600082601f830112611a6c57600080fd5b8135611a7c84826020860161198b565b91505092915050565b600082601f830112611a9657600080fd5b8135611aa68482602086016119c9565b91505092915050565b600081359050611abe81612bb2565b92915050565b600060208284031215611ad657600080fd5b6000611ae484828501611a07565b91505092915050565b60008060408385031215611b0057600080fd5b6000611b0e85828601611a07565b9250506020611b1f85828601611a07565b9150509250929050565b600080600060608486031215611b3e57600080fd5b6000611b4c86828701611a07565b9350506020611b5d86828701611a07565b9250506040611b6e86828701611aaf565b9150509250925092565b60008060008060808587031215611b8e57600080fd5b6000611b9c87828801611a07565b9450506020611bad87828801611a07565b9350506040611bbe87828801611aaf565b925050606085013567ffffffffffffffff811115611bdb57600080fd5b611be787828801611a5b565b91505092959194509250565b60008060408385031215611c0657600080fd5b6000611c1485828601611a07565b9250506020611c2585828601611a1c565b9150509250929050565b60008060408385031215611c4257600080fd5b6000611c5085828601611a07565b9250506020611c6185828601611aaf565b9150509250929050565b600060208284031215611c7d57600080fd5b6000611c8b84828501611a31565b91505092915050565b600060208284031215611ca657600080fd5b6000611cb484828501611a46565b91505092915050565b600060208284031215611ccf57600080fd5b600082013567ffffffffffffffff811115611ce957600080fd5b611cf584828501611a85565b91505092915050565b600060208284031215611d1057600080fd5b6000611d1e84828501611aaf565b91505092915050565b611d308161248f565b82525050565b611d3f816124a1565b82525050565b6000611d5082612391565b611d5a81856123a7565b9350611d6a818560208601612512565b611d73816126de565b840191505092915050565b6000611d898261239c565b611d9381856123b8565b9350611da3818560208601612512565b611dac816126de565b840191505092915050565b6000611dc28261239c565b611dcc81856123c9565b9350611ddc818560208601612512565b80840191505092915050565b6000611df56032836123b8565b9150611e00826126ef565b604082019050919050565b6000611e186025836123b8565b9150611e238261273e565b604082019050919050565b6000611e3b601c836123b8565b9150611e468261278d565b602082019050919050565b6000611e5e6024836123b8565b9150611e69826127b6565b604082019050919050565b6000611e816019836123b8565b9150611e8c82612805565b602082019050919050565b6000611ea4602c836123b8565b9150611eaf8261282e565b604082019050919050565b6000611ec76038836123b8565b9150611ed28261287d565b604082019050919050565b6000611eea602a836123b8565b9150611ef5826128cc565b604082019050919050565b6000611f0d6029836123b8565b9150611f188261291b565b604082019050919050565b6000611f30602e836123b8565b9150611f3b8261296a565b604082019050919050565b6000611f536020836123b8565b9150611f5e826129b9565b602082019050919050565b6000611f766031836123b8565b9150611f81826129e2565b604082019050919050565b6000611f99602c836123b8565b9150611fa482612a31565b604082019050919050565b6000611fbc602f836123b8565b9150611fc782612a80565b604082019050919050565b6000611fdf6021836123b8565b9150611fea82612acf565b604082019050919050565b60006120026031836123b8565b915061200d82612b1e565b604082019050919050565b612021816124f9565b82525050565b60006120338285611db7565b915061203f8284611db7565b91508190509392505050565b60006020820190506120606000830184611d27565b92915050565b600060808201905061207b6000830187611d27565b6120886020830186611d27565b6120956040830185612018565b81810360608301526120a78184611d45565b905095945050505050565b60006020820190506120c76000830184611d36565b92915050565b600060208201905081810360008301526120e78184611d7e565b905092915050565b6000602082019050818103600083015261210881611de8565b9050919050565b6000602082019050818103600083015261212881611e0b565b9050919050565b6000602082019050818103600083015261214881611e2e565b9050919050565b6000602082019050818103600083015261216881611e51565b9050919050565b6000602082019050818103600083015261218881611e74565b9050919050565b600060208201905081810360008301526121a881611e97565b9050919050565b600060208201905081810360008301526121c881611eba565b9050919050565b600060208201905081810360008301526121e881611edd565b9050919050565b6000602082019050818103600083015261220881611f00565b9050919050565b6000602082019050818103600083015261222881611f23565b9050919050565b6000602082019050818103600083015261224881611f46565b9050919050565b6000602082019050818103600083015261226881611f69565b9050919050565b6000602082019050818103600083015261228881611f8c565b9050919050565b600060208201905081810360008301526122a881611faf565b9050919050565b600060208201905081810360008301526122c881611fd2565b9050919050565b600060208201905081810360008301526122e881611ff5565b9050919050565b60006020820190506123046000830184612018565b92915050565b6000612314612325565b90506123208282612577565b919050565b6000604051905090565b600067ffffffffffffffff82111561234a576123496126af565b5b612353826126de565b9050602081019050919050565b600067ffffffffffffffff82111561237b5761237a6126af565b5b612384826126de565b9050602081019050919050565b600081519050919050565b600081519050919050565b600082825260208201905092915050565b600082825260208201905092915050565b600081905092915050565b60006123df826124f9565b91506123ea836124f9565b9250827fffffffffffffffffffffffffffffffffffffffffffffffffffffffffffffffff0382111561241f5761241e612622565b5b828201905092915050565b6000612435826124f9565b9150612440836124f9565b9250826124505761244f612651565b5b828204905092915050565b6000612466826124f9565b9150612471836124f9565b92508282101561248457612483612622565b5b828203905092915050565b600061249a826124d9565b9050919050565b60008115159050919050565b60007fffffffff0000000000000000000000000000000000000000000000000000000082169050919050565b600073ffffffffffffffffffffffffffffffffffffffff82169050919050565b6000819050919050565b82818337600083830152505050565b60005b83811015612530578082015181840152602081019050612515565b8381111561253f576000848401525b50505050565b6000600282049050600182168061255d57607f821691505b6020821081141561257157612570612680565b5b50919050565b612580826126de565b810181811067ffffffffffffffff8211171561259f5761259e6126af565b5b80604052505050565b60006125b3826124f9565b91507fffffffffffffffffffffffffffffffffffffffffffffffffffffffffffffffff8214156125e6576125e5612622565b5b600182019050919050565b60006125fc826124f9565b9150612607836124f9565b92508261261757612616612651565b5b828206905092915050565b7f4e487b7100000000000000000000000000000000000000000000000000000000600052601160045260246000fd5b7f4e487b7100000000000000000000000000000000000000000000000000000000600052601260045260246000fd5b7f4e487b7100000000000000000000000000000000000000000000000000000000600052602260045260246000fd5b7f4e487b7100000000000000000000000000000000000000000000000000000000600052604160045260246000fd5b6000601f19601f8301169050919050565b7f4552433732313a207472616e7366657220746f206e6f6e20455243373231526560008201527f63656976657220696d706c656d656e7465720000000000000000000000000000602082015250565b7f4552433732313a207472616e736665722066726f6d20696e636f72726563742060008201527f6f776e6572000000000000000000000000000000000000000000000000000000602082015250565b7f4552433732313a20746f6b656e20616c7265616479206d696e74656400000000600082015250565b7f4552433732313a207472616e7366657220746f20746865207a65726f2061646460008201527f7265737300000000000000000000000000000000000000000000000000000000602082015250565b7f4552433732313a20617070726f766520746f2063616c6c657200000000000000600082015250565b7f4552433732313a206f70657261746f7220717565727920666f72206e6f6e657860008201527f697374656e7420746f6b656e0000000000000000000000000000000000000000602082015250565b7f4552433732313a20617070726f76652063616c6c6572206973206e6f74206f7760008201527f6e6572206e6f7220617070726f76656420666f7220616c6c0000000000000000602082015250565b7f4552433732313a2062616c616e636520717565727920666f7220746865207a6560008201527f726f206164647265737300000000000000000000000000000000000000000000602082015250565b7f4552433732313a206f776e657220717565727920666f72206e6f6e657869737460008201527f656e7420746f6b656e0000000000000000000000000000000000000000000000602082015250565b7f45524337323155524953746f726167653a2055524920736574206f66206e6f6e60008201527f6578697374656e7420746f6b656e000000000000000000000000000000000000602082015250565b7f4552433732313a206d696e7420746f20746865207a65726f2061646472657373600082015250565b7f45524337323155524953746f726167653a2055524920717565727920666f722060008201527f6e6f6e6578697374656e7420746f6b656e000000000000000000000000000000602082015250565b7f4552433732313a20617070726f76656420717565727920666f72206e6f6e657860008201527f697374656e7420746f6b656e0000000000000000000000000000000000000000602082015250565b7f4552433732314d657461646174613a2055524920717565727920666f72206e6f60008201527f6e6578697374656e7420746f6b656e0000000000000000000000000000000000602082015250565b7f4552433732313a20617070726f76616c20746f2063757272656e74206f776e6560008201527f7200000000000000000000000000000000000000000000000000000000000000602082015250565b7f4552433732313a207472616e736665722063616c6c6572206973206e6f74206f60008201527f776e6572206e6f7220617070726f766564000000000000000000000000000000602082015250565b612b768161248f565b8114612b8157600080fd5b50565b612b8d816124a1565b8114612b9857600080fd5b50565b612ba4816124ad565b8114612baf57600080fd5b50565b612bbb816124f9565b8114612bc657600080fd5b5056fea264697066735822122075b95a4cb16f1d21633354dca5b1e50f64146a128840a7f9a8c7c434d59a3a4464736f6c63430008040033",
  "linkReferences": {},
  "deployedLinkReferences": {}
}