{
  "_format": "hh-sol-artifact-1",
  "contractName": "Marketplace",
  "sourceName": "contracts/marketplace.sol",
  "abi": [
    {
      "inputs": [
        {
          "internalType": "contract IERC20",
          "name": "_tokenAddress",
          "type": "address"
        },
        {
          "internalType": "contract IERC721",
          "name": "_nftAddress",
          "type": "address"
        }
      ],
      "stateMutability": "nonpayable",
      "type": "constructor"
    },
    {
      "anonymous": false,
      "inputs": [
        {
          "indexed": false,
          "internalType": "uint256",
          "name": "itemId",
          "type": "uint256"
        },
        {
          "indexed": false,
          "internalType": "uint256",
          "name": "tokenId",
          "type": "uint256"
        },
        {
          "indexed": false,
          "internalType": "uint256",
          "name": "price",
          "type": "uint256"
        },
        {
          "indexed": true,
          "internalType": "address",
          "name": "seller",
          "type": "address"
        }
      ],
      "name": "NFTListed",
      "type": "event"
    },
    {
      "anonymous": false,
      "inputs": [
        {
          "indexed": false,
          "internalType": "uint256",
          "name": "tokenId",
          "type": "uint256"
        },
        {
          "indexed": false,
          "internalType": "uint256",
          "name": "price",
          "type": "uint256"
        },
        {
          "indexed": true,
          "internalType": "address",
          "name": "seller",
          "type": "address"
        },
        {
          "indexed": true,
          "internalType": "address",
          "name": "buyer",
          "type": "address"
        }
      ],
      "name": "NFTSold",
      "type": "event"
    },
    {
      "inputs": [
        {
          "internalType": "uint256",
          "name": "_tokenId",
          "type": "uint256"
        }
      ],
      "name": "buyNFT",
      "outputs": [],
      "stateMutability": "payable",
      "type": "function"
    },
    {
      "inputs": [],
      "name": "feeAccount",
      "outputs": [
        {
          "internalType": "address payable",
          "name": "",
          "type": "address"
        }
      ],
      "stateMutability": "view",
      "type": "function"
    },
    {
      "inputs": [
        {
          "internalType": "uint256",
          "name": "_tokenId",
          "type": "uint256"
        }
      ],
      "name": "getFee",
      "outputs": [
        {
          "internalType": "uint256",
          "name": "",
          "type": "uint256"
        }
      ],
      "stateMutability": "view",
      "type": "function"
    },
    {
      "inputs": [
        {
          "internalType": "uint256",
          "name": "_tokenId",
          "type": "uint256"
        }
      ],
      "name": "getRoyalty",
      "outputs": [
        {
          "internalType": "uint256",
          "name": "",
          "type": "uint256"
        }
      ],
      "stateMutability": "view",
      "type": "function"
    },
    {
      "inputs": [],
      "name": "itemCount",
      "outputs": [
        {
          "internalType": "uint256",
          "name": "",
          "type": "uint256"
        }
      ],
      "stateMutability": "view",
      "type": "function"
    },
    {
      "inputs": [
        {
          "internalType": "uint256",
          "name": "",
          "type": "uint256"
        }
      ],
      "name": "items",
      "outputs": [
        {
          "internalType": "uint256",
          "name": "itemId",
          "type": "uint256"
        },
        {
          "internalType": "uint256",
          "name": "price",
          "type": "uint256"
        },
        {
          "internalType": "uint256",
          "name": "tokenId",
          "type": "uint256"
        },
        {
          "internalType": "uint256",
          "name": "royalty",
          "type": "uint256"
        },
        {
          "internalType": "address payable",
          "name": "seller",
          "type": "address"
        },
        {
          "internalType": "bool",
          "name": "listed",
          "type": "bool"
        }
      ],
      "stateMutability": "view",
      "type": "function"
    },
    {
      "inputs": [
        {
          "internalType": "uint256",
          "name": "_tokenId",
          "type": "uint256"
        },
        {
          "internalType": "uint256",
          "name": "_price",
          "type": "uint256"
        },
        {
          "internalType": "uint256",
          "name": "_royalty",
          "type": "uint256"
        }
      ],
      "name": "listNFT",
      "outputs": [],
      "stateMutability": "nonpayable",
      "type": "function"
    },
    {
      "inputs": [],
      "name": "platformFeePercent",
      "outputs": [
        {
          "internalType": "uint256",
          "name": "",
          "type": "uint256"
        }
      ],
      "stateMutability": "view",
      "type": "function"
    }
  ],
  "bytecode": "0x60c06040523480156200001157600080fd5b506040516200191438038062001914833981810160405281019062000037919062000137565b60016000819055503373ffffffffffffffffffffffffffffffffffffffff1660808173ffffffffffffffffffffffffffffffffffffffff1660601b81525050601960a0818152505081600260006101000a81548173ffffffffffffffffffffffffffffffffffffffff021916908373ffffffffffffffffffffffffffffffffffffffff16021790555080600360006101000a81548173ffffffffffffffffffffffffffffffffffffffff021916908373ffffffffffffffffffffffffffffffffffffffff160217905550505062000208565b6000815190506200011a81620001d4565b92915050565b6000815190506200013181620001ee565b92915050565b600080604083850312156200014b57600080fd5b60006200015b8582860162000109565b92505060206200016e8582860162000120565b9150509250929050565b60006200018582620001b4565b9050919050565b6000620001998262000178565b9050919050565b6000620001ad8262000178565b9050919050565b600073ffffffffffffffffffffffffffffffffffffffff82169050919050565b620001df816200018c565b8114620001eb57600080fd5b50565b620001f981620001a0565b81146200020557600080fd5b50565b60805160601c60a0516116d56200023f6000396000818161060d01526108ef0152600081816103fd01526105e301526116d56000f3fe60806040526004361061007b5760003560e01c80638c639a851161004e5780638c639a851461012f578063b0136c8d1461015a578063bfb231d214610183578063fcee45f4146101c55761007b565b80631af9cf491461008057806351ed8288146100bd57806365e17c9d146100d95780636bfb0d0114610104575b600080fd5b34801561008c57600080fd5b506100a760048036038101906100a29190610e0b565b610202565b6040516100b491906111c1565b60405180910390f35b6100d760048036038101906100d29190610e0b565b61024f565b005b3480156100e557600080fd5b506100ee6105e1565b6040516100fb919061100f565b60405180910390f35b34801561011057600080fd5b50610119610605565b60405161012691906111c1565b60405180910390f35b34801561013b57600080fd5b5061014461060b565b60405161015191906111c1565b60405180910390f35b34801561016657600080fd5b50610181600480360381019061017c9190610e5d565b61062f565b005b34801561018f57600080fd5b506101aa60048036038101906101a59190610e0b565b61087f565b6040516101bc9695949392919061123c565b60405180910390f35b3480156101d157600080fd5b506101ec60048036038101906101e79190610e0b565b6108e8565b6040516101f991906111c1565b60405180910390f35b600060646004600084815260200190815260200160002060030154600460008581526020019081526020016000206001015461023e9190611335565b6102489190611304565b9050919050565b60026000541415610295576040517f08c379a000000000000000000000000000000000000000000000000000000000815260040161028c906111a1565b60405180910390fd5b6002600081905550600060046000838152602001908152602001600020905060006102bf83610202565b905060006102cc846108e8565b90506102d784610940565b600260009054906101000a900473ffffffffffffffffffffffffffffffffffffffff1673ffffffffffffffffffffffffffffffffffffffff166323b872dd338560040160009054906101000a900473ffffffffffffffffffffffffffffffffffffffff1685876001015461034b91906112ae565b6040518463ffffffff1660e01b815260040161036993929190611053565b602060405180830381600087803b15801561038357600080fd5b505af1158015610397573d6000803e3d6000fd5b505050506040513d601f19601f820116820180604052508101906103bb9190610de2565b50600260009054906101000a900473ffffffffffffffffffffffffffffffffffffffff1673ffffffffffffffffffffffffffffffffffffffff166323b872dd337f0000000000000000000000000000000000000000000000000000000000000000846040518463ffffffff1660e01b815260040161043b93929190611053565b602060405180830381600087803b15801561045557600080fd5b505af1158015610469573d6000803e3d6000fd5b505050506040513d601f19601f8201168201806040525081019061048d9190610de2565b5060008360040160146101000a81548160ff021916908315150217905550600360009054906101000a900473ffffffffffffffffffffffffffffffffffffffff1673ffffffffffffffffffffffffffffffffffffffff166323b872dd303386600201546040518463ffffffff1660e01b815260040161050e9392919061108a565b600060405180830381600087803b15801561052857600080fd5b505af115801561053c573d6000803e3d6000fd5b505050503373ffffffffffffffffffffffffffffffffffffffff168360040160009054906101000a900473ffffffffffffffffffffffffffffffffffffffff1673ffffffffffffffffffffffffffffffffffffffff167f2820044bbebd591ee7d08b7d81dd01945a1a32706da693a946e532d6d9884258856002015486600101546040516105cb9291906111dc565b60405180910390a3505050600160008190555050565b7f000000000000000000000000000000000000000000000000000000000000000081565b60015481565b7f000000000000000000000000000000000000000000000000000000000000000081565b60026000541415610675576040517f08c379a000000000000000000000000000000000000000000000000000000000815260040161066c906111a1565b60405180910390fd5b6002600081905550600160008154809291906106909061141f565b91905055506106a0838383610b50565b600360009054906101000a900473ffffffffffffffffffffffffffffffffffffffff1673ffffffffffffffffffffffffffffffffffffffff166323b872dd3330866040518463ffffffff1660e01b81526004016106ff9392919061108a565b600060405180830381600087803b15801561071957600080fd5b505af115801561072d573d6000803e3d6000fd5b505050506040518060c0016040528060015481526020018381526020018481526020018281526020013373ffffffffffffffffffffffffffffffffffffffff16815260200160011515815250600460008581526020019081526020016000206000820151816000015560208201518160010155604082015181600201556060820151816003015560808201518160040160006101000a81548173ffffffffffffffffffffffffffffffffffffffff021916908373ffffffffffffffffffffffffffffffffffffffff16021790555060a08201518160040160146101000a81548160ff0219169083151502179055509050503373ffffffffffffffffffffffffffffffffffffffff167f5fc076273da30f9495a795f70cf6fedc3cec996f6a27ddc637c7e6328e77006d600154858560405161086a93929190611205565b60405180910390a26001600081905550505050565b60046020528060005260406000206000915090508060000154908060010154908060020154908060030154908060040160009054906101000a900473ffffffffffffffffffffffffffffffffffffffff16908060040160149054906101000a900460ff16905086565b60006103e87f0000000000000000000000000000000000000000000000000000000000000000600460008581526020019081526020016000206001015461092f9190611335565b6109399190611304565b9050919050565b6004600082815260200190815260200160002060040160149054906101000a900460ff166109a3576040517f08c379a000000000000000000000000000000000000000000000000000000000815260040161099a90611181565b60405180910390fd5b3373ffffffffffffffffffffffffffffffffffffffff166004600083815260200190815260200160002060040160009054906101000a900473ffffffffffffffffffffffffffffffffffffffff1673ffffffffffffffffffffffffffffffffffffffff161415610a48576040517f08c379a0000000000000000000000000000000000000000000000000000000008152600401610a3f90611161565b60405180910390fd5b6004600082815260200190815260200160002060010154600260009054906101000a900473ffffffffffffffffffffffffffffffffffffffff1673ffffffffffffffffffffffffffffffffffffffff1663dd62ed3e33306040518363ffffffff1660e01b8152600401610abc92919061102a565b60206040518083038186803b158015610ad457600080fd5b505afa158015610ae8573d6000803e3d6000fd5b505050506040513d601f19601f82011682018060405250810190610b0c9190610e34565b1015610b4d576040517f08c379a0000000000000000000000000000000000000000000000000000000008152600401610b4490611121565b60405180910390fd5b50565b60008211610b93576040517f08c379a0000000000000000000000000000000000000000000000000000000008152600401610b8a906110c1565b60405180910390fd5b6004600084815260200190815260200160002060040160149054906101000a900460ff1615610bf7576040517f08c379a0000000000000000000000000000000000000000000000000000000008152600401610bee906110e1565b60405180910390fd5b60008110158015610c09575060148111155b610c48576040517f08c379a0000000000000000000000000000000000000000000000000000000008152600401610c3f90611141565b60405180910390fd5b3373ffffffffffffffffffffffffffffffffffffffff16600360009054906101000a900473ffffffffffffffffffffffffffffffffffffffff1673ffffffffffffffffffffffffffffffffffffffff16636352211e856040518263ffffffff1660e01b8152600401610cba91906111c1565b60206040518083038186803b158015610cd257600080fd5b505afa158015610ce6573d6000803e3d6000fd5b505050506040513d601f19601f82011682018060405250810190610d0a9190610db9565b73ffffffffffffffffffffffffffffffffffffffff1614610d60576040517f08c379a0000000000000000000000000000000000000000000000000000000008152600401610d5790611101565b60405180910390fd5b505050565b600081519050610d748161165a565b92915050565b600081519050610d8981611671565b92915050565b600081359050610d9e81611688565b92915050565b600081519050610db381611688565b92915050565b600060208284031215610dcb57600080fd5b6000610dd984828501610d65565b91505092915050565b600060208284031215610df457600080fd5b6000610e0284828501610d7a565b91505092915050565b600060208284031215610e1d57600080fd5b6000610e2b84828501610d8f565b91505092915050565b600060208284031215610e4657600080fd5b6000610e5484828501610da4565b91505092915050565b600080600060608486031215610e7257600080fd5b6000610e8086828701610d8f565b9350506020610e9186828701610d8f565b9250506040610ea286828701610d8f565b9150509250925092565b610eb5816113e9565b82525050565b610ec4816113a1565b82525050565b610ed38161138f565b82525050565b610ee2816113b3565b82525050565b6000610ef5601f8361129d565b9150610f00826114c6565b602082019050919050565b6000610f18601c8361129d565b9150610f23826114ef565b602082019050919050565b6000610f3b60288361129d565b9150610f4682611518565b604082019050919050565b6000610f5e601d8361129d565b9150610f6982611567565b602082019050919050565b6000610f8160258361129d565b9150610f8c82611590565b604082019050919050565b6000610fa460188361129d565b9150610faf826115df565b602082019050919050565b6000610fc7601e8361129d565b9150610fd282611608565b602082019050919050565b6000610fea601f8361129d565b9150610ff582611631565b602082019050919050565b611009816113df565b82525050565b60006020820190506110246000830184610ebb565b92915050565b600060408201905061103f6000830185610eca565b61104c6020830184610eca565b9392505050565b60006060820190506110686000830186610eca565b6110756020830185610eac565b6110826040830184611000565b949350505050565b600060608201905061109f6000830186610eca565b6110ac6020830185610eca565b6110b96040830184611000565b949350505050565b600060208201905081810360008301526110da81610ee8565b9050919050565b600060208201905081810360008301526110fa81610f0b565b9050919050565b6000602082019050818103600083015261111a81610f2e565b9050919050565b6000602082019050818103600083015261113a81610f51565b9050919050565b6000602082019050818103600083015261115a81610f74565b9050919050565b6000602082019050818103600083015261117a81610f97565b9050919050565b6000602082019050818103600083015261119a81610fba565b9050919050565b600060208201905081810360008301526111ba81610fdd565b9050919050565b60006020820190506111d66000830184611000565b92915050565b60006040820190506111f16000830185611000565b6111fe6020830184611000565b9392505050565b600060608201905061121a6000830186611000565b6112276020830185611000565b6112346040830184611000565b949350505050565b600060c0820190506112516000830189611000565b61125e6020830188611000565b61126b6040830187611000565b6112786060830186611000565b6112856080830185610ebb565b61129260a0830184610ed9565b979650505050505050565b600082825260208201905092915050565b60006112b9826113df565b91506112c4836113df565b9250827fffffffffffffffffffffffffffffffffffffffffffffffffffffffffffffffff038211156112f9576112f8611468565b5b828201905092915050565b600061130f826113df565b915061131a836113df565b92508261132a57611329611497565b5b828204905092915050565b6000611340826113df565b915061134b836113df565b9250817fffffffffffffffffffffffffffffffffffffffffffffffffffffffffffffffff048311821515161561138457611383611468565b5b828202905092915050565b600061139a826113bf565b9050919050565b60006113ac826113bf565b9050919050565b60008115159050919050565b600073ffffffffffffffffffffffffffffffffffffffff82169050919050565b6000819050919050565b60006113f4826113fb565b9050919050565b60006114068261140d565b9050919050565b6000611418826113bf565b9050919050565b600061142a826113df565b91507fffffffffffffffffffffffffffffffffffffffffffffffffffffffffffffffff82141561145d5761145c611468565b5b600182019050919050565b7f4e487b7100000000000000000000000000000000000000000000000000000000600052601160045260246000fd5b7f4e487b7100000000000000000000000000000000000000000000000000000000600052601260045260246000fd5b7f5072696365206d7573742062652067726561746572207468616e207a65726f00600082015250565b7f204e4654206973206e6f74206c697374656420666f722073616c652e00000000600082015250565b7f596f7520617265206e6f7420617574686f72697a656420746f206c697374207460008201527f686973204e46542e000000000000000000000000000000000000000000000000602082015250565b7f556e73756666696369656e7420746f6b656e20616c6c6f77616e63652e000000600082015250565b7f20526f79616c74792073686f756c64206265206265747765656e203020616e6460008201527f203230252e000000000000000000000000000000000000000000000000000000602082015250565b7f7965682077616c61206e6169206368616c726120626861690000000000000000600082015250565b7f746865206e6674206973206e6f74206c697374656420666f722073616c650000600082015250565b7f5265656e7472616e637947756172643a207265656e7472616e742063616c6c00600082015250565b6116638161138f565b811461166e57600080fd5b50565b61167a816113b3565b811461168557600080fd5b50565b611691816113df565b811461169c57600080fd5b5056fea264697066735822122025d79302f92c3c915435edf28945ef3af2fd82dca94f4778cb890587b93fdf1864736f6c63430008040033",
  "linkReferences": {},
  "deployedLinkReferences": {}
}